{
  "contractName": "CrowdFundFactory",
  "abi": [
    {
      "inputs": [],
      "name": "crowdFundCount",
      "outputs": [
        {
          "internalType": "uint256",
          "name": "",
          "type": "uint256"
        }
      ],
      "stateMutability": "view",
      "type": "function"
    },
    {
      "inputs": [
        {
          "internalType": "uint256",
          "name": "",
          "type": "uint256"
        }
      ],
      "name": "crowdFundList",
      "outputs": [
        {
          "internalType": "address",
          "name": "",
          "type": "address"
        }
      ],
      "stateMutability": "view",
      "type": "function"
    },
    {
      "inputs": [
        {
          "internalType": "uint256",
          "name": "_minimumDonation",
          "type": "uint256"
        },
        {
          "internalType": "uint256",
          "name": "_deadline",
          "type": "uint256"
        },
        {
          "internalType": "uint256",
          "name": "_targetFund",
          "type": "uint256"
        },
        {
          "internalType": "string",
          "name": "_description",
          "type": "string"
        },
        {
          "internalType": "string",
          "name": "_image",
          "type": "string"
        }
      ],
      "name": "createNewFund",
      "outputs": [],
      "stateMutability": "payable",
      "type": "function"
    },
    {
      "inputs": [
        {
          "internalType": "uint256",
          "name": "_index",
          "type": "uint256"
        }
      ],
      "name": "getParticularFund",
      "outputs": [
        {
          "internalType": "address",
          "name": "",
          "type": "address"
        }
      ],
      "stateMutability": "view",
      "type": "function"
    }
  ],
  "bytecode": "0x6080604052600060015534801561001557600080fd5b50611dd7806100256000396000f3fe608060405260043610620000445760003560e01c80630cf22a8f14620000495780630de974f314620000695780632468242a14620000ad578063d8fa19e714620000dd575b600080fd5b6200006760048036038101906200006191906200043d565b62000121565b005b3480156200007657600080fd5b506200009560048036038101906200008f919062000503565b620001ee565b604051620000a491906200057a565b60405180910390f35b348015620000ba57600080fd5b50620000c562000238565b604051620000d49190620005a8565b60405180910390f35b348015620000ea57600080fd5b5062000109600480360381019062000103919062000503565b6200023e565b6040516200011891906200057a565b60405180910390f35b6001806000828254620001359190620005f4565b92505081905550600085858585853360405162000152906200027e565b6200016396959493929190620006e4565b604051809103906000f08015801562000180573d6000803e3d6000fd5b5090506000819080600181540180825580915050600190039060005260206000200160009091909190916101000a81548173ffffffffffffffffffffffffffffffffffffffff021916908373ffffffffffffffffffffffffffffffffffffffff160217905550505050505050565b60008082815481106200020657620002056200075f565b5b9060005260206000200160009054906101000a900473ffffffffffffffffffffffffffffffffffffffff169050919050565b60015481565b600081815481106200024f57600080fd5b906000526020600020016000915054906101000a900473ffffffffffffffffffffffffffffffffffffffff1681565b611613806200078f83390190565b6000604051905090565b600080fd5b600080fd5b6000819050919050565b620002b581620002a0565b8114620002c157600080fd5b50565b600081359050620002d581620002aa565b92915050565b600080fd5b600080fd5b6000601f19601f8301169050919050565b7f4e487b7100000000000000000000000000000000000000000000000000000000600052604160045260246000fd5b6200033082620002e5565b810181811067ffffffffffffffff82111715620003525762000351620002f6565b5b80604052505050565b6000620003676200028c565b905062000375828262000325565b919050565b600067ffffffffffffffff821115620003985762000397620002f6565b5b620003a382620002e5565b9050602081019050919050565b82818337600083830152505050565b6000620003d6620003d0846200037a565b6200035b565b905082815260208101848484011115620003f557620003f4620002e0565b5b62000402848285620003b0565b509392505050565b600082601f830112620004225762000421620002db565b5b813562000434848260208601620003bf565b91505092915050565b600080600080600060a086880312156200045c576200045b62000296565b5b60006200046c88828901620002c4565b95505060206200047f88828901620002c4565b94505060406200049288828901620002c4565b935050606086013567ffffffffffffffff811115620004b657620004b56200029b565b5b620004c4888289016200040a565b925050608086013567ffffffffffffffff811115620004e857620004e76200029b565b5b620004f6888289016200040a565b9150509295509295909350565b6000602082840312156200051c576200051b62000296565b5b60006200052c84828501620002c4565b91505092915050565b600073ffffffffffffffffffffffffffffffffffffffff82169050919050565b6000620005628262000535565b9050919050565b620005748162000555565b82525050565b600060208201905062000591600083018462000569565b92915050565b620005a281620002a0565b82525050565b6000602082019050620005bf600083018462000597565b92915050565b7f4e487b7100000000000000000000000000000000000000000000000000000000600052601160045260246000fd5b60006200060182620002a0565b91506200060e83620002a0565b9250827fffffffffffffffffffffffffffffffffffffffffffffffffffffffffffffffff03821115620006465762000645620005c5565b5b828201905092915050565b600081519050919050565b600082825260208201905092915050565b60005b838110156200068d57808201518184015260208101905062000670565b838111156200069d576000848401525b50505050565b6000620006b08262000651565b620006bc81856200065c565b9350620006ce8185602086016200066d565b620006d981620002e5565b840191505092915050565b600060c082019050620006fb600083018962000597565b6200070a602083018862000597565b62000719604083018762000597565b81810360608301526200072d8186620006a3565b90508181036080830152620007438185620006a3565b90506200075460a083018462000569565b979650505050505050565b7f4e487b7100000000000000000000000000000000000000000000000000000000600052603260045260246000fdfe60806040523480156200001157600080fd5b5060405162001613380380620016138339818101604052810190620000379190620003f7565b80600360006101000a81548173ffffffffffffffffffffffffffffffffffffffff021916908373ffffffffffffffffffffffffffffffffffffffff16021790555085600481905550610e1060188662000091919062000500565b6200009d919062000500565b42620000aa919062000561565b600581905550670de0b6b3a764000084620000c6919062000500565b6006819055508260079080519060200190620000e49291906200010a565b508160089080519060200190620000fd9291906200010a565b5050505050505062000623565b8280546200011890620005ed565b90600052602060002090601f0160209004810192826200013c576000855562000188565b82601f106200015757805160ff191683800117855562000188565b8280016001018555821562000188579182015b82811115620001875782518255916020019190600101906200016a565b5b5090506200019791906200019b565b5090565b5b80821115620001b65760008160009055506001016200019c565b5090565b6000604051905090565b600080fd5b600080fd5b6000819050919050565b620001e381620001ce565b8114620001ef57600080fd5b50565b6000815190506200020381620001d8565b92915050565b600080fd5b600080fd5b6000601f19601f8301169050919050565b7f4e487b7100000000000000000000000000000000000000000000000000000000600052604160045260246000fd5b6200025e8262000213565b810181811067ffffffffffffffff8211171562000280576200027f62000224565b5b80604052505050565b600062000295620001ba565b9050620002a3828262000253565b919050565b600067ffffffffffffffff821115620002c657620002c562000224565b5b620002d18262000213565b9050602081019050919050565b60005b83811015620002fe578082015181840152602081019050620002e1565b838111156200030e576000848401525b50505050565b60006200032b6200032584620002a8565b62000289565b9050828152602081018484840111156200034a57620003496200020e565b5b62000357848285620002de565b509392505050565b600082601f83011262000377576200037662000209565b5b81516200038984826020860162000314565b91505092915050565b600073ffffffffffffffffffffffffffffffffffffffff82169050919050565b6000620003bf8262000392565b9050919050565b620003d181620003b2565b8114620003dd57600080fd5b50565b600081519050620003f181620003c6565b92915050565b60008060008060008060c08789031215620004175762000416620001c4565b5b60006200042789828a01620001f2565b96505060206200043a89828a01620001f2565b95505060406200044d89828a01620001f2565b945050606087015167ffffffffffffffff811115620004715762000470620001c9565b5b6200047f89828a016200035f565b935050608087015167ffffffffffffffff811115620004a357620004a2620001c9565b5b620004b189828a016200035f565b92505060a0620004c489828a01620003e0565b9150509295509295509295565b7f4e487b7100000000000000000000000000000000000000000000000000000000600052601160045260246000fd5b60006200050d82620001ce565b91506200051a83620001ce565b9250817fffffffffffffffffffffffffffffffffffffffffffffffffffffffffffffffff0483118215151615620005565762000555620004d1565b5b828202905092915050565b60006200056e82620001ce565b91506200057b83620001ce565b9250827fffffffffffffffffffffffffffffffffffffffffffffffffffffffffffffffff03821115620005b357620005b2620004d1565b5b828201905092915050565b7f4e487b7100000000000000000000000000000000000000000000000000000000600052602260045260246000fd5b600060028204905060018216806200060657607f821691505b602082108114156200061d576200061c620005be565b5b50919050565b610fe080620006336000396000f3fe6080604052600436106100c25760003560e01c80637284e4161161007f57806396d8f4f31161005957806396d8f4f314610227578063ca973f0714610252578063f3ab7ea914610269578063f3ccaac014610294576100c2565b80637284e416146101c7578063802c6ee5146101f25780638dd8596c1461021d576100c2565b80631f6d4942146100c757806326e0b25f1461010457806329dcb0cf1461012f57806331c660c41461015a5780634e260f6f146101715780636f9fb98a1461019c575b600080fd5b3480156100d357600080fd5b506100ee60048036038101906100e991906109c6565b6102bf565b6040516100fb9190610a0c565b60405180910390f35b34801561011057600080fd5b506101196102d7565b6040516101269190610a0c565b60405180910390f35b34801561013b57600080fd5b506101446102dd565b6040516101519190610a0c565b60405180910390f35b34801561016657600080fd5b5061016f6102e3565b005b34801561017d57600080fd5b50610186610503565b6040516101939190610a0c565b60405180910390f35b3480156101a857600080fd5b506101b1610509565b6040516101be9190610a0c565b60405180910390f35b3480156101d357600080fd5b506101dc610511565b6040516101e99190610ac0565b60405180910390f35b3480156101fe57600080fd5b5061020761059f565b6040516102149190610a0c565b60405180910390f35b6102256105a5565b005b34801561023357600080fd5b5061023c6106fe565b6040516102499190610a0c565b60405180910390f35b34801561025e57600080fd5b50610267610704565b005b34801561027557600080fd5b5061027e6108af565b60405161028b9190610af1565b60405180910390f35b3480156102a057600080fd5b506102a96108d5565b6040516102b69190610ac0565b60405180910390f35b60006020528060005260406000206000915090505481565b60065481565b60055481565b600360009054906101000a900473ffffffffffffffffffffffffffffffffffffffff1673ffffffffffffffffffffffffffffffffffffffff163373ffffffffffffffffffffffffffffffffffffffff1614610373576040517f08c379a000000000000000000000000000000000000000000000000000000000815260040161036a90610b7e565b60405180910390fd5b60055442116103b7576040517f08c379a00000000000000000000000000000000000000000000000000000000081526004016103ae90610bea565b60405180910390fd5b60065460095410156103fe576040517f08c379a00000000000000000000000000000000000000000000000000000000081526004016103f590610c56565b60405180910390fd5b60003390508073ffffffffffffffffffffffffffffffffffffffff166108fc6009549081150290604051600060405180830381858888f1935050505015801561044b573d6000803e3d6000fd5b5060005b6002805490508110156104f75760006002828154811061047257610471610c76565b5b9060005260206000200160009054906101000a900473ffffffffffffffffffffffffffffffffffffffff16905060008060008373ffffffffffffffffffffffffffffffffffffffff1673ffffffffffffffffffffffffffffffffffffffff168152602001908152602001600020819055505080806104ef90610cd4565b91505061044f565b50600060098190555050565b60015481565b600047905090565b6007805461051e90610d4c565b80601f016020809104026020016040519081016040528092919081815260200182805461054a90610d4c565b80156105975780601f1061056c57610100808354040283529160200191610597565b820191906000526020600020905b81548152906001019060200180831161057a57829003601f168201915b505050505081565b60095481565b60055442106105e9576040517f08c379a00000000000000000000000000000000000000000000000000000000081526004016105e090610dca565b60405180910390fd5b60045434101561062e576040517f08c379a000000000000000000000000000000000000000000000000000000000815260040161062590610e36565b60405180910390fd5b60016000803373ffffffffffffffffffffffffffffffffffffffff1673ffffffffffffffffffffffffffffffffffffffff16815260200190815260200160002054141561068e576001600081548092919061068890610cd4565b91905055505b346000803373ffffffffffffffffffffffffffffffffffffffff1673ffffffffffffffffffffffffffffffffffffffff16815260200190815260200160002060008282546106dc9190610e56565b9250508190555034600960008282546106f59190610e56565b92505081905550565b60045481565b60008060003373ffffffffffffffffffffffffffffffffffffffff1673ffffffffffffffffffffffffffffffffffffffff1681526020019081526020016000205411610785576040517f08c379a000000000000000000000000000000000000000000000000000000000815260040161077c90610ef8565b60405180910390fd5b600554421180156107995750600654600954105b6107d8576040517f08c379a00000000000000000000000000000000000000000000000000000000081526004016107cf90610f8a565b60405180910390fd5b600033905060008060003373ffffffffffffffffffffffffffffffffffffffff1673ffffffffffffffffffffffffffffffffffffffff1681526020019081526020016000205490508173ffffffffffffffffffffffffffffffffffffffff166108fc829081150290604051600060405180830381858888f19350505050158015610866573d6000803e3d6000fd5b5060008060003373ffffffffffffffffffffffffffffffffffffffff1673ffffffffffffffffffffffffffffffffffffffff168152602001908152602001600020819055505050565b600360009054906101000a900473ffffffffffffffffffffffffffffffffffffffff1681565b600880546108e290610d4c565b80601f016020809104026020016040519081016040528092919081815260200182805461090e90610d4c565b801561095b5780601f106109305761010080835404028352916020019161095b565b820191906000526020600020905b81548152906001019060200180831161093e57829003601f168201915b505050505081565b600080fd5b600073ffffffffffffffffffffffffffffffffffffffff82169050919050565b600061099382610968565b9050919050565b6109a381610988565b81146109ae57600080fd5b50565b6000813590506109c08161099a565b92915050565b6000602082840312156109dc576109db610963565b5b60006109ea848285016109b1565b91505092915050565b6000819050919050565b610a06816109f3565b82525050565b6000602082019050610a2160008301846109fd565b92915050565b600081519050919050565b600082825260208201905092915050565b60005b83811015610a61578082015181840152602081019050610a46565b83811115610a70576000848401525b50505050565b6000601f19601f8301169050919050565b6000610a9282610a27565b610a9c8185610a32565b9350610aac818560208601610a43565b610ab581610a76565b840191505092915050565b60006020820190508181036000830152610ada8184610a87565b905092915050565b610aeb81610988565b82525050565b6000602082019050610b066000830184610ae2565b92915050565b7f596f7520617265206e6f742074686520617574686f726973656420706572736f60008201527f6e00000000000000000000000000000000000000000000000000000000000000602082015250565b6000610b68602183610a32565b9150610b7382610b0c565b604082019050919050565b60006020820190508181036000830152610b9781610b5b565b9050919050565b7f446561646c696e65206973206e6f742070617373657300000000000000000000600082015250565b6000610bd4601683610a32565b9150610bdf82610b9e565b602082019050919050565b60006020820190508181036000830152610c0381610bc7565b9050919050565b7f546172676574206973206e6f742066756c66696c6c6564000000000000000000600082015250565b6000610c40601783610a32565b9150610c4b82610c0a565b602082019050919050565b60006020820190508181036000830152610c6f81610c33565b9050919050565b7f4e487b7100000000000000000000000000000000000000000000000000000000600052603260045260246000fd5b7f4e487b7100000000000000000000000000000000000000000000000000000000600052601160045260246000fd5b6000610cdf826109f3565b91507fffffffffffffffffffffffffffffffffffffffffffffffffffffffffffffffff821415610d1257610d11610ca5565b5b600182019050919050565b7f4e487b7100000000000000000000000000000000000000000000000000000000600052602260045260246000fd5b60006002820490506001821680610d6457607f821691505b60208210811415610d7857610d77610d1d565b5b50919050565b7f446561646c696e6520697320676f6e6500000000000000000000000000000000600082015250565b6000610db4601083610a32565b9150610dbf82610d7e565b602082019050919050565b60006020820190508181036000830152610de381610da7565b9050919050565b7f4d696e696d756d20446f6e6174696f6e206973206e6f74206d65740000000000600082015250565b6000610e20601b83610a32565b9150610e2b82610dea565b602082019050919050565b60006020820190508181036000830152610e4f81610e13565b9050919050565b6000610e61826109f3565b9150610e6c836109f3565b9250827fffffffffffffffffffffffffffffffffffffffffffffffffffffffffffffffff03821115610ea157610ea0610ca5565b5b828201905092915050565b7f596f7520617265206e6f74206120636f6e7472696275746f7200000000000000600082015250565b6000610ee2601983610a32565b9150610eed82610eac565b602082019050919050565b60006020820190508181036000830152610f1181610ed5565b9050919050565b7f45697468657220646561646c696e65206973206e6f742070617373206f72206360008201527f6f6c6c656374656420616d6f756e74206d657420746865207461726765740000602082015250565b6000610f74603e83610a32565b9150610f7f82610f18565b604082019050919050565b60006020820190508181036000830152610fa381610f67565b905091905056fea26469706673582212206b50f7e05067271c7e1e59a0bc2ffc6f7de466a2acd5d1596a716d516c04eacb64736f6c634300080b0033a2646970667358221220b1b19fc7402abd807a32d058307a9527375e2e0d487a3e6a2a54281984b8fbf064736f6c634300080b0033",
  "immutableReferences": {},
  "source": "//SPDX-License-Identifier: MIT\r\npragma solidity >=0.5.0 < 0.9.0;\r\n\r\nimport \"./CrowdFund.sol\";\r\n\r\ncontract CrowdFundFactory{\r\n    address[] public crowdFundList;\r\n    uint public crowdFundCount = 0;\r\n    // uint256 public val = 100;\r\n\r\n    // function getByteCode(uint256 _minimumDonation, uint256 _deadline, uint256 _targetFund, string memory _description, string memory _image) private pure returns (bytes memory) {\r\n    //     bytes memory bytecode = type(CrowdFund).creationCode;\r\n\r\n    //     return abi.encodePacked(bytecode, abi.encode(_minimumDonation, _deadline, _targetFund, _description, _image));\r\n    // }\r\n\r\n    // function getAddress(bytes memory bytecode, uint _salt) private view returns (address) {\r\n    //     bytes32 hash = keccak256(\r\n    //         abi.encodePacked(bytes1(0xff), address(this), _salt, keccak256(bytecode))\r\n    //     );\r\n\r\n    //     // NOTE: cast last 20 bytes of hash to address\r\n    //     return address(uint160(uint(hash)));\r\n    // }\r\n\r\n    // function deploy(bytes memory bytecode, uint _salt) public payable {\r\n    //     address addr;\r\n\r\n    //     /*\r\n    //     NOTE: How to call create2\r\n\r\n    //     create2(v, p, n, s)\r\n    //     create new contract with code at memory p to p + n\r\n    //     and send v wei\r\n    //     and return the new address\r\n    //     where new address = first 20 bytes of keccak256(0xff + address(this) + s + keccak256(mem[p(p+n)))\r\n    //           s = big-endian 256-bit value\r\n    //     */\r\n\r\n    //     assembly {\r\n    //         addr := create2(\r\n    //             callvalue(), // wei sent with current call\r\n    //             // Actual code starts after skipping the first 32 bytes\r\n    //             add(bytecode, 0x20),\r\n    //             mload(bytecode), // Load the size of code contained in the first 32 bytes\r\n    //             _salt // Salt from function arguments\r\n    //         )\r\n\r\n    //         if iszero(extcodesize(addr)) {\r\n    //             revert(0, 0)\r\n    //         }\r\n    //     }\r\n\r\n    // //   crowdFundList.push(addr);\r\n        \r\n    // }\r\n\r\n\r\n    function createNewFund (uint256 _minimumDonation, uint256 _deadline, uint256 _targetFund, string memory _description, string memory _image) public payable{\r\n      crowdFundCount += 1;\r\n      CrowdFund crowdFund = new CrowdFund(_minimumDonation,  _deadline, _targetFund,  _description, _image, msg.sender);\r\n      crowdFundList.push(address(crowdFund));\r\n\r\n    //   bytes memory byteCode = getByteCode(_minimumDonation, _deadline, _targetFund, _description, _image);\r\n    //   address fundContractAddress = getAddress(byteCode, 123);\r\n    // //   deploy(byteCode, 123);\r\n\r\n    //   crowdFundList.push(fundContractAddress);\r\n\r\n    }\r\n\r\n    function getParticularFund(uint256 _index) public view returns (address){\r\n      return crowdFundList[_index];\r\n    }\r\n}",
  "sourcePath": "C:\\Users\\Suman\\Desktop\\Blockchain\\CrowdFund\\helpify-me-crowdfund\\contracts\\CrowdFundFactory.sol",
  "compiler": {
    "name": "solc",
    "version": "0.8.11+commit.d7f03943.Emscripten.clang"
  },
  "schemaVersion": "3.4.5",
  "updatedAt": "2022-06-11T07:07:27.242Z",
  "devdoc": {
    "kind": "dev",
    "methods": {},
    "version": 1
  },
  "userdoc": {
    "kind": "user",
    "methods": {},
    "version": 1
  }
}